:02000002D0002C
:1040000000400D0008850D00000006000C000501B1
:08401000040115050000000089
:10401800B47D0D0009480A49884208B505D0094A07
:10402800824202D0121A03F088FD0748074A00218D
:10403800121A03F0A8FD014808BD00BFACE2032036
:1040480060840D002CE303202CE30320F0E7032019
:1040580070B502F0ADFE074C074BE41AA408002522
:104068001E46A54204D056F8253098470135F8E792
:1040780070BD00BF58840D001C840D0000F050B8BE
:1040880008B500F0AFF8BDE8084002F05FBE00F0E8
:10409800F1BB00F0F7BB00F0F5BB000008B5034A20
:1040A80000210C2000F052FBFEE700BFF1440D0098
:1040B8000078B0FA80F04009704701230370704718
:1040C8007047006A0368DB6818470023DAB2914238
:1040D80003F10103FAD870470A4B10B50446036090
:1040E80002F008F9214602F0F5FA02F0DBFF02F0CF
:1040F800D6FF2046044B40F8043B02F0F1F9204675
:1041080010BD00BFE87D0D00D07D0D0010B5044640
:10411800FFF7E2FF2046242103F098FB204610BD5C
:1041280010B592B002F036FF4FF4E13102F022FFF1
:1041380020230993234B0B9337230C93224B0D9386
:10414800002407230A948DF82830204B2049009337
:1041580009AA2346012000F001FB01F04DF91D4991
:1041680001F056FD01F048F91B4901F051FD09A87D
:1041780000F01DFE194B04A8196800F02EFD9DF8EB
:10418800203013F0FD0305D0102300940DEB03023B
:10419800072107E012AABDF8101022F83A1D009373
:1041A8000321022309A800F0BBFD0D4909A800F06E
:1041B80018FE01F021F9002209A900F029FF12B028
:1041C80010BD00BF057E0D00F87D0D00317E0D008D
:1041D8002D7E0D003CE3032058E30320B4E20320C6
:1041E800467E0D0070B501F007F900F02EFF38B3D8
:1041F800144C154E02F0CEFE03681B699847A0B117
:104208002568132D11D86B1C236002F0C3FE0368C8
:104218005B699847705502F0BDFE23680268334415
:10422800926813F8011C9047E4E7064B1A683AB104
:104238000549064800F022FE024B00221A6070BDB4
:1042480070BD00BF30E3032044E303203CE30320B8
:1042580070B5046843681426054606FB0346A64263
:1042680004D0204600F09CFB1434F8E7286800F0DE
:1042780009FB284670BD8842F8B506460C46154627
:1042880016D9904215D2A2F114056C1AA1F114079F
:104298000444AF421CD02CB12946204600F070FBE4
:1042A8002B7C2374284600F07BFB143D143CF0E77C
:1042B8000ED0AC420CD02EB12146304600F060FB47
:1042C800237C3374204600F06BFB14341436F0E77B
:1042D800F8BD2DE9F04100230360436083604E6818
:1042E8009E4204460F4624DD4FF0140808FB06F0F2
:1042F80000F0C0FA0546E0B194E8060008FB021297
:10430800FFF7B9FF206800F0BDFA2560A6603E6897
:104318007B6808FB0368464509D02DB1314628461D
:1043280000F0A7FB337C2B7414361435F3E77B6855
:1043380063602046BDE8F0812DE9F04395B000F0B8
:10434800BBF8454B454EDFF8489100244FF6FF7205
:104358009A801C705C80032000F018FA049405947D
:10436800069402F09FFE04A9804607A8FFF7B1FF54
:10437800374607A90AA8FFF7ACFF394B47F8043BB3
:104388000FAD0AA92846FFF7A4FF2A46012138469F
:1043980002F003FB2846FFF75BFF0AA8FFF758FF68
:1043A800304B3360C6F8208007A8FFF751FF2E4B2B
:1043B800336002F077FE4FF4E13102F06DFE2B4FCF
:1043C80001F098FF314602F07BFA04A8FFF740FF9E
:1043D8003A462749304603F02BFA264E264BD9F8A1
:1043E80000801968346074600AA800F0F6FB414642
:1043F8002846DFF8A08000F0F0FB0AAB30460294B4
:104408000194009510221D4901F0E0FA3A46414610
:10441800304603F00DFA1A4E1A4BD9F80090196875
:10442800346074600AA800F0D8FB4946284600F0BA
:10443800D4FB154B019330460AAB02960095042233
:10444800124901F0C3FA3A464146304603F0F0F902
:1044580015B0BDE8F08300BF34E3032060E3032018
:10446800D07D0D0030810D00E87D0D002CE3032088
:10447800E1400D003CE30320B0E203204B7E0D0039
:1044880058E30320ACE20320D3400D004E7E0D001C
:10449800B4E20320C9500D0008B5024B1B689B68A5
:1044A800019308BD6802030008B5024B1B68DB686E
:1044B800019308BD6802030008B5024B1B681B681E
:1044C800019308BD2C02030008B5024B1B68DB6989
:1044D800019308BD3002030008B5024B1B685B68F6
:1044E800019308BD1802030008B5024B1B68DB687E
:1044F800019308BD1802030008B5024B1B685B69ED
:10450800019308BD1802030008B5024B1B689B689D
:10451800019308BD7802030008B5024B1B685B696C
:10452800019308BD7802030008B5024B1B681B6D98
:10453800019308BD7802030008B5024B1B689B6D08
:10454800019308BD7802030008B5024B1B681B6E77
:10455800019308BD7802030008B5034B1B68D3F824
:10456800A830019308BD00007802030008B5034B8A
:104578001B68D3F8AC30019308BD00007802030033
:1045880008B5034B1B68D3F8B430019308BD00008D
:104598007802030008B5034B1B68D3F8D8300193A1
:1045A80008BD00007802030008B5034B1B68D3F868
:1045B800DC30019308BD00007802030008B5024B07
:1045C8001B689B68019308BD4802030008B5024BAD
:1045D8001B681B69019308BD4802030008B5024B1C
:1045E8001B685B69019308BD4802030008B5024BCC
:1045F8001B681B6B019308BD4802030008B5024BFA
:104608001B685B6C019308BD4802030008B5024BA8
:104618001B68DB6C019308BD4802030008B5024B18
:104628001B685B6D019308BD4802030008B5024B87
:104638001B685B69019308BD6402030008B5024B5F
:104648001B681B68019308BD3C02030008B5024BB8
:104658001B689B68019308BD3C02030008B5024B28
:104668001B68DB68019308BD3C02030008B5024BD8
:104678001B681B69019308BD3C02030008B5024B87
:104688001B685B69019308BD3C02030008B5024B37
:104698001B689B69019308BD3C02030008B5024BE7
:1046A8001B68DB69019308BD3C02030008B5024B97
:1046B8001B689B6A019308BD3C02030008B5024BC6
:1046C8001B68DB6A019308BD3C02030008B5024B76
:1046D8001B681B68019308BD4C02030008B5024B18
:1046E8001B685B68019308BD4C02030008B5024BC8
:1046F8001B689B68019308BD4C02030008B5024B78
:104708001B681B69019308BD4C02030008B5024BE6
:104718001B685B69019308BD4C02030008B5024B96
:104728001B689B69019308BD4C02030008B5024B46
:104738001B68DB69019308BD4C02030008B5024BF6
:104748001B681B6A019308BD4C02030008B5024BA5
:104758001B685B6B019308BD6002030008B5024B40
:104768001B681B6D019308BD6002030008B5024B6E
:104778001B68DB6E019308BD6002030008B5024B9D
:104788001B681B6F019308BD6002030008B5024B4C
:104798001B685B68019308BD2002030008B5034B42
:1047A8001B68D3F88830019308BD0000200203007D
:1047B80008B5034B1B68D3F89430019308BD00007B
:1047C8002002030008B5024B1B685B68019308BD13
:1047D8004002030008B5024B1B689B68019308BDA3
:1047E8004002030008B5024B1B68DB68019308BD53
:1047F8004002030008B5024B1B681B69019308BD02
:104808004002030008B5024B1B685B69019308BDB1
:104818004002030008B5024B1B689B69019308BD61
:104828004002030008B5024B1B68DB69019308BD11
:104838004002030008B5024B1B681B6A019308BDC0
:104848004002030008B5024B1B681B6B019308BDAF
:104858004002030008B5024B1B685B6B019308BD5F
:104868004002030008B5024B1B68DB6B019308BDCF
:104878004402030008B5024B1B681B68019308BD7E
:104888001C02030008B5024B1B685B68019308BD56
:104898001C02030008B5024B1B689B68019308BD06
:1048A8001C02030008B5024B1B685B6A019308BD34
:1048B8001C020300002211464068FFF7BBBF00221C
:1048C80011464068FFF7C6BF00224068FFF7BABF2D
:1048D800002281F001014068FFF7A4BF00231A46B7
:1048E80019464068FFF796BF00231A4619464068E4
:1048F800FFF788BF002211464068FFF77BBF002200
:1049080011464068FFF766BF002202214068FFF7A2
:1049180069BF00231A464068FFF754BF024B0322C1
:104928005A60024A1A60704784E30320C87E0D006B
:10493800704710B51021044602F088FF204610BDCC
:1049480070B5084B0360044600250E4640F80C5F1E
:10495800FFF74CFE30462671FFF7B6FDA5602046EE
:1049680070BD00BFFC7E0D00044B00204FF6FF72A7
:10497800187058809A80FFF709BF00BF8CE30320A6
:104988000023036043608360037310B50C68046000
:104998004C6844608C6884600B604B608B6010BD11
:1049A80010B504460068FFF76DFF204610BD10B52E
:1049B8000446006808B1FFF765FF00232360A36081
:1049C800636010BD38B504460D4600680131FFF735
:1049D80061FF10B184E82100012038BD10B50368DB
:1049E800044613B143688B4207D22046FFF7EAFF1B
:1049F80020B1A3680BB922681370012010BD70B5EF
:104A08000E46114604461546FFF7E8FF18B920463A
:104A1800FFF7CDFF09E02A463146A560206803F07C
:104A28008CF82268A3680021D154204670BD38B59F
:104A38000023044603604360836003730D4639B165
:104A4800084603F0F3F8294602462046FFF7D7FF49
:104A5800204638BD884210B50B46044607D0096881
:104A680019B19A68FFF7CBFF01E0FFF7A0FF2046D6
:104A780010BD10B5002304460360436083600373D0
:104A8800FFF7E8FF204610BD38B505460C4641B192
:104A9800084603F0CBF8214602462846FFF7AFFF49
:104AA80001E0FFF784FF284638BD704700207047B3
:104AB80070470020704770470020704710B51421D8
:104AC800044602F0C3FE204610BD10B5142104466A
:104AD80002F0BCFE204610BD10B51421044602F0B9
:104AE800B5FE204610BDFFF7D4BAFFF7D2BAFFF7DC
:104AF800D0BA10B5036804469B689847A368013B81
:104B0800A3602BB923682046DB68BDE8104018472E
:104B180010BD08B582798B799A4206D1062202F037
:104B2800FDFFB0FA80F0400908BD002008BD10B5AF
:104B380014220446002103F026F8204610BD000088
:104B480010B500230370044B04461868FFF75EFD98
:104B580001232370204610BDBCE3032010B5037861
:104B680004461BB1024B1868FFF758FD204610BDDC
:104B7800BCE3032070B50C4605461646FFF7D7FF81
:104B88002CB910222146284602F0FDFF16E0012E1E
:104B980009D12B4604F1100254F8041B43F8041BF6
:104BA8009442F9D108E06A1E0F23E15C02F8011F64
:104BB800013BDBB2FF2BF8D101232B74284670BDD3
:104BC80038B5044615461A46FFF7D4FF2573012366
:104BD8002D0A65732374204638BD2DE9F0418846B7
:104BE8000746FFF7A4FFB8F1000F02D000261025F2
:104BF8000FE010224146384602F0C5FF4AE018F897
:104C08000630A3F13002D1B2092908D8531C14D1B7
:104C18000136404603F00AF88642F0D333E0A3F1A8
:104C28006102052A02D8A3F15702EFE7A3F1410276
:104C3800052AEDD8A3F13702E8E71201013DD4B205
:104C48007C55404602F0F2FF01368642E0D218F861
:104C58000620A2F13003D9B209290ED9A2F16103C5
:104C6800052B02D8A2F1570307E0A2F14103052B57
:104C780094BFA2F137034FF0FF335AB201331CBF80
:104C880014437C55C4E77B190022BB4202D003F8C9
:104C9800012DFAE701233B743846BDE8F0811FB5C2
:104CA800037C13F0FD0F04460AD010220021684649
:104CB80002F069FF10226946204602F02FFF00E04B
:104CC8000088003018BF012004B010BD10B5047C66
:104CD80014F0FD0F06D0102202F020FFB0FA80F089
:104CE800400910BD038808881B1A5842584110BD56
:104CF800F0B58BB10024E51C8D420FD8661C055D0C
:104D0800875D974205D12E44B14207D31C60681CC9
:104D1800F0BD01352C44EEE71846F0BD0020F0BD8B
:104D28002DE9F74304460E461D461746002A3AD099
:104D38000A4601AB016AFFF7DBFF9DF82830226ABB
:104D480003BBF8B1961C2E44361A1F2E2BD8DDF85B
:104D5800048008F10209C8EB0202121A00EB0801EC
:104D680005EB090092B22144204402F0F1FE6B1CCD
:104D780004F808302A46394604EB090002F0DDFE43
:104D8800266210E0901C2B181F2B0CD86B1CA35408
:104D9800224420623946567020442A4602F0CDFE4D
:104DA800226A2A442262206A03B0BDE8F0831FB554
:104DB8000446034600F11F02002003F8010B93424A
:104DC8004FF00001F9D104AA062302F8013D01239E
:104DD8002162009120461946FFF7A2FF204604B041
:104DE80010BD37B5054608460C4602F01FFF0023E4
:104DF80000932246034609212846FFF791FF03B096
:104E080030BD73B50A460E4601AB016A0446FFF78A
:104E18006FFF054678B10198226A2918121A521BA9
:104E28002144204402F089FE236A5D1B2562314635
:104E38002046FFF7E6FF02B070BD000038B5002538
:104E4800044600F8025BFFF772FE04F11600FFF754
:104E58006EFE094904F12C00FFF7E9FD012384F8EF
:104E68003C304FF6FF73E5642565A4F85430A5651A
:104E780084F85C50204638BD62800D0037B5006864
:104E88000C46B0B371B36AB390F83C50F42A28BF0B
:104E9800F4223DB1B0F84400002303B0BDE830402F
:104EA800FFF76EBB90F85C30F3B1037843F008016C
:104EB800082909D1B0F84410B0F8540000951346F9
:104EC8002246FFF767FB14E043F00403042B0ED1DE
:104ED800B0F84410B0F85400009513462246FFF786
:104EE80063FB06E0044804E06FF0D10001E06FF0D6
:104EF800770003B030BD00BFF2FEFFFF2DE9F84395
:104F080090E850000D461746984604EBC606A642A0
:104F180033D023689A69D96902EBC10191421BD049
:104F280013689BB1B3F84200A84211D0B3F844000B
:104F3800A8420DD0B3F84600A84209D0B3F84800FB
:104F4800A84205D0B3F84A00A84201D00832E5E7E4
:104F580017B1B8F1000F01D10834D8E7D3F84C9055
:104F6800B9F1000FF8D0B3F84420AA42F4D11B6D70
:104F7800089A41463846C847EEE7BDE8F883F8B5D1
:104F880090E850000F4604EBC606B442254608D008
:104F9800394654F8080BFFF799FE0028F5D0284643
:104FA800F8BD0020F8BD08B500680968C28ACB8A38
:104FB8009A4204D101310130FFF7ABFD08BD002052
:104FC80008BD084609B90A4601E0096A0022FFF748
:104FD800ABBA10B50C4611B90A46084606E00121DD
:104FE8002046FFF70EFF216A00222046BDE8104048
:104FF800FFF7A2BA13B501A8FFF7A2FD0020FFF73B
:10500800A3FA044601A8FFF7A9FD204602B010BD87
:1050180073B505460C4601A81646FFF791FD2146D3
:105028002846FFF7CEFF002808DB31462846FFF761
:10503800D0FF002802DB2846FFF7DCFF044601A862
:10504800FFF78CFD204602B070BD83695B68002BBA
:1050580006DCC36958680028D4BF002001207047C7
:105068000120704730B5836993E8140002EBC4044B
:10507800A242134607D01D68ED8A8D4202F108024C
:10508800F6D1184630BDC2691368526803EBC202F4
:105098009A42184606D00468E48A8C4203F1080351
:1050A800F6D130BD002030BD10B50446006828B1E7
:1050B8004368013B43600BB9FFF71BFD204610BD59
:1050C80010B504460430FFF7EFFF204610BD0B680B
:1050D800036013B15A6801325A60704710B551F82D
:1050E800043B044640F8043BFFF7F1FF204610BD9F
:1050F80010B551F8043B044640F8043BFFF7E7FFBE
:10510800204610BD70B504684368054604EBC30625
:10511800A64204D0201DFFF7C7FF0834F8E7286827
:10512800FFF7B0FB284670BD38B5044610200D784F
:10513800FEF7ADFF20B10023036043608360057371
:105148002060204638BD38B50468054634B120468D
:10515800FFF7D8FF1021204602F078FB284638BD1B
:1051680010B5046904F11C00FFF7EDFF2046BDE807
:105178001040FEF78EBF70B504684368054604EB1F
:10518800C306A64204D0201DFFF78EFF0834F8E7B7
:1051980000236B6070BD8842F8B506460C4615467C
:1051A80014D9904213D2A2F108056C1AA1F108078C
:1051B8000444AF4218D01CB129462046FFF798FF97
:1051C800281DFFF771FF083D083CF2E70CD0AC4200
:1051D8000AD01EB121463046FFF78AFF201DFFF78F
:1051E80063FF08340836F2E7F8BDF8B50B68DA69EA
:1051F8000E4613685168054603EBC1010024994225
:105208000DD018688269C06902EBC000904204D0D2
:1052180052F8087B87F85C40F8E70833EFE7336813
:105228004FF6FF710022D9827F211A701976C3F8D0
:105238000A20C3F80E20C3F812202C686B6804EB10
:10524800C307BC4216D031462046FFF7ACFE08B96A
:105258000834F6E774B1201DFFF726FF2B686A684B
:1052680004F1080103EBC2022046FFF794FF6B68C4
:10527800013B6B60F8BDF7B5044646686846FFF722
:1052880037FF6768A3689F4214DB0137002F0BDDE7
:10529800F800FFF7EFFA054600B394E8060001EBC3
:1052A800C202FFF778FF00E000252068FFF7EAFA5E
:1052B8002560A7602368626803EBC60503EBC2029A
:1052C800294605F10800FFF766FF1DB16946284623
:1052D800FFF70EFF636801336360012501A8FFF73C
:1052E800E3FE284603B0F0BD70B504684368054680
:1052F80004EBC306A64204D0201DFFF7D5FE0834F0
:10530800F8E72868FFF7BEFA284670BD10B50446CE
:1053180038B1FFF7E9FF20460C21BDE8104002F044
:1053280095BA10BD10B5044638B1FFF7DDFF204629
:105338000C21BDE8104002F089BA10BD37B5002530
:105348000446056045608560C56005614561856105
:10535800C5612846FFF7D8F820B1254A29460A2012
:10536800FFF7F4F901230DF1030101A88DF80330CB
:10537800FFF7DAFE2569019B23610022019235B10E
:105388002846FFF7BFFE1021284602F05FFA01A861
:10539800FFF7D9FE0120FEF77AFE636960611BB151
:1053A8000121184602F052FA0C20FEF770FE03465F
:1053B80018B10022026042608260A069A36108B14E
:1053C800FFF7A4FF0C20FEF762FE034618B1002287
:1053D800026042608260E069E36108B1FFF7A2FF02
:1053E800002221460348FFF797F8204603B030BD56
:1053F800F1440D0021580D0010B50A4C2368DB0755
:105408000ED42046FEF754FE50B10748FFF796FF2A
:105418002046FEF752FE054A0549034802F008FAFD
:10542800014810BDB4E3032094E303202CE30320D8
:105438003D540D0010B50446C06908B1FFF772FF6E
:10544800A06908B1FFF762FF606910B1012102F09D
:10545800FDF904F11000FFF776FE204610BD8842E2
:10546800F8B506460C46154614D9904213D2A2F157
:1054780008056C1AA1F108070444AF4218D01CB102
:1054880029462046FFF72AFE281DFFF70DFE083D96
:10549800083CF2E70CD0AC420AD01EB12146304697
:1054A800FFF71CFE201DFFF7FFFD08340836F2E762
:1054B800F8BDF7B5044646686846FFF70FFE67680B
:1054C800A3689F4214DB0137002F0BDDF800FFF7BC
:1054D800D1F9054600B394E8060001EBC202FFF7D4
:1054E800BEFF00E000252068FFF7CCF92560A76023
:1054F8002368626803EBC60503EBC202294605F17F
:105508000800FFF7ACFF1DB169462846FFF7E6FD26
:10551800636801336360012501A8FFF7C5FD2846CC
:1055280003B0F0BD2DE9F04F0C688BB006460F466E
:1055380014B38569C36904F1020A05EBC30804F1D1
:10554800160BA84516D0D5F80090504609F102016F
:10555800FFF7BCFB00286BD009F116015846FFF78E
:10556800B5FB002864D094F83C2099F83C309A4266
:105578005ED101E023780BB930485BE094F83C3009
:10558800002B41D002342046FFF789FBB0B92C4BE1
:105598002C491A88013292B21A8001A80123FFF718
:1055A8000FFB05AD01AA134603CBAB422060616037
:1055B8001A4604F10804F6D118682060242422460B
:1055C800002101A802F0DFFAADF806403C6804AA01
:1055D800A31C04F1120E18685968154603C5083350
:1055E80073452A46F7D11868286023788DF8083063
:1055F800B38AADF82430E36A0393002204F13E0134
:1056080001A8FEF7B3FFA8B93B689E653B68012275
:1056180083F85C20394601A8FFF760FD01A906F16F
:105628001800FFF746FF02A8FFF73EFD002001E043
:10563800083586E70BB0BDE8F08F00BFF2FEFFFF2C
:10564800B8E30320587F0D00884270B515461AD973
:10565800904219D2A1F10806511A0439151F4418AD
:105668002B1F9E4225D0042C07D055F8043C44F843
:10567800043C29462046FFF72AFD2846FFF714FD7B
:10568800083D083CECE714D00C1D061D231F9D4265
:105698000FD0042E07D054F8043C46F8043C2146A9
:1056A8003046FFF714FD2046FFF7FEFC08340836A5
:1056B800ECE770BDF0B50F6889B00D463946044671
:1056C800FFF75DFC00285ED1237BBBB103AE3B46F0
:1056D80007F1100CB64618685968324603C20833F9
:1056E80063451646F7D118681060002307F11402C5
:1056F80071460120FEF730FF002845D1294602A84F
:1057080051F8043B0193FFF7E2FC019B039302A9C4
:1057180004A86768FFF7DBFC6568A3689D4214DB93
:105728000135002D0BDDE800FFF7A4F8064610B39D
:1057380094E8060001EBC202FFF786FF00E00026AE
:105748002068FFF79FF82660A5602668626806EB68
:10575800C70506EBC202294605F10800FFF774FFEA
:1057680035B1039B46F8373004A9281DFFF7AFFC75
:1057780063680133636004A8FFF796FC02A8FFF78B
:1057880093FC002000E0014809B0F0BDF2FEFFFFE5
:1057980073B500250560456006462020FEF777FCB6
:1057A8000446B0B1034601A903F8015BC0F80150F3
:1057B8005D604FF6FF73C3827F23C0F80A50C0F8BC
:1057C8000E50C0F8125003761C308DF80450FFF7C5
:1057D800ABFC002314200193FEF759FC28B10123E8
:1057E80043608360064B03600461736834607060D3
:1057F80001A80193FFF758FC304602B070BD00BF06
:10580800447F0D0013B54FF0000101AA0446FFF7CD
:10581800BFFF204602B010BDF0B504468BB00D4660
:10582800002900F0A58003A8FFF78AF96368033B05
:10583800072B00F29A80DFE803F0044498989898C0
:10584800808B06A8FFF7DEFF069BA2899A826289F1
:105858005A8222891A822289DA81228BDA822246A6
:10586800A17D52F8100F04909288ADF81420049886
:10587800BDF81420D971C3F80100A3F805202B68DE
:1058880013B1A96806A89847A37B012B069B0BBFF9
:10589800022201221A701A700CBFAC69EC696368A5
:1058A800002B0ADC06A908A8FFF722FC08A9204655
:1058B800FFF7E1FC09A8FFF7F7FB07A8FFF7F4FBE0
:1058C80053E0A1892846FFF7CDFB044600284CD0B9
:1058D8006B680BB1E968984723681A78012A04D1E4
:1058E8002146E869FFF781FC3FE0DA69A869136897
:1058F8005168002603EBC10199420DD01D68AA69C1
:10590800ED6902EBC505954204D052F8087B87F88B
:105918005C60F8E70833EFE723684FF6FF71002271
:10592800D9827F211A701976C3F80A20C3F80E208D
:10593800C3F81220FFF71FFC17E0A18A2846FFF7DB
:1059480091FB90B1E18A0090E368226928690AE036
:10595800A18A2846FFF786FB38B10568E18A0090DE
:10596800E3682269E869FFF7C9FA03A8FFF7F6F8C0
:105978000BB0F0BD10B50446406808B1FEF789FBCE
:10598800204610BD07B503690C308DE8090003F106
:105998002C00FFF705F86846FFF7ECFF03B05DF849
:1059A80004FB000038B500230446036014200D46AC
:1059B800FEF76DFB28B1012343608360024B03604F
:1059C80005612060204638BD0C7F0D002DE9F041AF
:1059D80088B006461D466020002388461746049373
:1059E8000593FEF754FBCDF818D00446079000B392
:1059F800FFF724FA414604F12C00FFF745F80F9B06
:105A0800E364109B236527702B46A21C05F1140143
:105A180053F8040B42F8040B8B42F9D10E9B04F1A6
:105A2800160203F1140153F8040B42F8040B8B42DD
:105A3800F9D12146002501AB02AA03A80795FFF773
:105A4800B1FF039B059A039203A805930494FFF7FB
:105A58002BFB06A8FFF78EFF049B059A316833607D
:105A680008A873680691726040F8043D059504958E
:105A7800FFF71AFB05A8FFF717FB08B0BDE8F08190
:105A880010B50446406808B1FEF703FB204610BD78
:105A980073B505690C30AC69EB698DE8210004EB3E
:105AA800C306A64204D0201DFFF7FEFA0834F8E723
:105AB800A869FEF7E7FE6846FFF7E2FF02B070BD8F
:105AC80038B500230446036014200D46FEF7DFFABC
:105AD80028B1012343608360024B036005612060A5
:105AE800204638BD287F0D00F0B5002687B0066037
:105AF8004660074624200D46FEF7C9FACDF810D0B7
:105B080004460590A0B1FFF712F8A682E682A661C6
:105B1800E66126622B46224605F110061868596888
:105B2800154603C50833B3422A46F7D118682860DA
:105B380000232146059302AA01AB03A8FFF7C0FF83
:105B4800039B7A683C607B6003A80392FFF7ACFA7A
:105B580004A8FFF795FF384607B0F0BDF0B50B680D
:105B680087B005460C46002B46D0027B83F83C20C4
:105B7800037BC3B108681630FFF791F898B9012282
:105B8800214901A8FEF7F6FF236801AA163305AFDD
:105B9800164603CEBE4218605960324603F1080328
:105BA800F6D1306818602668163631462846FFF761
:105BB800E6F930B1006808B32146FFF7B3FC0446A4
:105BC8001EE0314601A8FFF78FFF01A92846FFF71D
:105BD80071FD58B96B682A6803F10053013B2146EF
:105BE80052F83300FFF79EFC044601E06FF0F90419
:105BF80002A8FFF759FA03E0044C01E06FF0F9043A
:105C0800204607B0F0BD00BF587F0D00F2FEFFFF31
:105C180037B504460D4601A8FEF792FF29462069CC
:105C2800FFF79CFF044601A8FEF798FF204603B043
:105C380030BD0000024800230360FEF7DFBC00BF50
:105C4800BCE30320F8B506460D468F180024BD4274
:105C58000CD0336815F8011B9B683046984700281C
:105C680001DB0444F3E7002C08BF04462046F8BDD6
:105C780070B505460C46084649B101F0D7FF2B68B8
:105C8800024621462846DB68BDE87040184770BDCB
:105C980003689B68184738B50D210546FFF7F8FFDC
:105CA8000A2104462846FFF7F3FF204438BD30B5E3
:105CB8008BB00B4600218DF82410012A98BF0A22C8
:105CC8000DF12304B3FBF2F505FB123303F0FF03D8
:105CD800092B94BF30333733DBB2214604F801393E
:105CE8002B46002DEED1FFF7C3FF0BB030BD10B42B
:105CF8002AB903685DF8044B9B68C9B21847D2B249
:105D08005DF8044BFFF7D3BFFFF7F1BF0CB42DE9E3
:105D1800F04387B000AF07F13804054654F8049BF8
:105D28003C600E4623464A461421381DFEF7BAFD4C
:105D3800132805D8391D2846FFF79AFF044613E0B3
:105D480000F1080323F00703E846ADEB030D411CFF
:105D580023464A4668463C60FEF7A4FD6946284645
:105D6800FFF786FF0446C5461EB12846FFF793FF96
:105D7800044420461C37BD46BDE8F04302B07047D6
:105D880080680368DB681847704719B10B680846D4
:105D98005B681847704719B10B6808465B68184775
:105DA800704770477047704738B504460D4600681D
:105DB8002E2101F027FF2368C31A2B6023B1037833
:105DC80003B1013023682060184638BD10B50C2196
:105DD800044601F03BFD204610BD10B504210446E1
:105DE80001F034FD204610BD10B50421044601F031
:105DF8002DFD204610BD38B50C46054601F0CAF801
:105E0800844205D101F0C6F8BDE8384001F0B6B8C3
:105E180001F048F9844205D101F044F9BDE8384061
:105E280001F03DB921462846FFF7B5FF38BD08B552
:105E380001F0F2FEB0FA80F0400908BD38B5054619
:105E480008460C4601F0F2FE214602462846BDE807
:105E5800384001F052BC00002DE9F04385B04FF006
:105E6800000891460746484A01921D46036A039373
:105E780001A80E468DF808800C9C01F0AAFB41464B
:105E88004846FEF773FC41498046012201A801F00B
:105E980025FC4146FFF7D2FF3EB13D49012201A84A
:105EA80001F01CFC3146FFF7C9FF3DB13949012219
:105EB80001A801F013FC2946FFF7C0FF2379DE078C
:105EC8000ED5A5682F21284601F0CDFE00B1451C4E
:105ED8003149012201A801F001FC2946FFF7AEFF74
:105EE80023799D0707D52D49022201A801F0F6FB69
:105EF800E16801F07BFB2379580716D525692E4602
:105F0800334613F8012B3AB1202A01D11D4601E08E
:105F1800282A01D01E46F3E70222214901A801F0F0
:105F2800DDFB721B294601F0E8FB2379190707D529
:105F38001C49012201A801F0D1FB616901F068FB4D
:105F48002379DA0608D5042217490DEB020001F07F
:105F5800C5FBA16901F04AFB23799B0607D51349C4
:105F6800062201A801F0BAFBE169FFF767FF01A863
:105F780001F019FB386A0E4903680222DB6898476A
:105F880005B0BDE8F08300BF0C800D0098800D00BF
:105F9800AB800D0020810D004C800D004E800D005F
:105FA80051800D00C0800D0054800D0059800D00F7
:105FB80060800D000068FEF729BB70B504460846EE
:105FC8000D4601F033FE2368024629462046DB6869
:105FD800BDE87040184713B502AB026803F8011D0D
:105FE800D46819460122A04702B010BD2DE9F0413E
:105FF800069D98462B790E4619070446174605D57F
:106008006B69544A006A0021FFF780FEB8F1000F5F
:106018000DD05B212046FFF7DEFF41462046FFF703
:10602800CCFF23684C49DB680222204698472B792D
:10603800DA0725D5D5F808802F21404601F013FE50
:1060480008B100F1010841462046FFF7B6FF2B7959
:106058009B0709D53A212046FFF7BDFFEB683F4A69
:10606800206A0021FFF752FE2B7913F0040F2368F2
:1060780018BF3B49DB6808BF3A49022220469847C7
:106088002B79580718D529690A46134613F8010BC6
:1060980038B1202801D1194601E0282801D01A4634
:1060A800F3E72368521ADB682046984723682E498D
:1060B800DB6804222046984700213846FEF756FB45
:1060C80001462046FFF779FF23682649DB6802224C
:1060D800204698471EB131462046FFF76EFF2B79C0
:1060E80013F0300F2DD023682049DB6802222046A8
:1060F80098472B79D9060BD523681D49DB680722F9
:1061080020469847AB691B4A206A0021FFF7FEFD2D
:106118002B799A0611D5DB0605D523681049DB686B
:1061280002222046984723681349DB6820460A2242
:106138009847E9692046FFF740FF5D212046FFF7B1
:106148004AFF23680D49DB6820460222BDE8F0417A
:10615800184700BF63800D006A800D00E67F0D00C0
:106168006D800D0072800D0070800D0075800D002F
:1061780078800D0080800D0083800D0060800D0008
:106188002DE9F04F4568076885B0914614225543BC
:106198000193AB10194D02925D438B463C46012397
:1061A800002D039323DD029B6E1003FB06F004EB26
:1061B80000084A46B8F804A02058D14528BF5246DE
:1061C800594601F03BFD039B48B9D14503D1019ADB
:1061D80013703546E4E78CBF0120002000E0C00FB3
:1061E8000028F6D0AE1B08F11404013EF1E7E41BC9
:1061F8000248A410604305B0BDE8F08FCDCCCCCCEC
:10620800F0B585B003690191067E13B309B304AFF5
:10621800002347F8043D00F10C041D46394601A847
:10622800FFF7C2FD0146A0B104AB039A03F8055D70
:106238002046FFF7A5FF9DF80B3053B123681424BF
:1062480004FB0034083434F9023C002BA8BFDEB24A
:10625800E4E7304605B0F0BD10B5094C2368DB070C
:106268000BD42046FDF724FF38B12046FDF725FF63
:10627800044A0549054801F0DBFA044810BD00BF8F
:10628800C0E303202CE30320AD5D0D00B8E203203A
:1062980010B5094C2368DB070BD42046FDF708FF2F
:1062A80038B12046FDF709FF044A0549054801F0C1
:1062B800BFFA044810BD00BFF0E303202CE303201D
:1062C800AB5D0D00BCE2032038B50025044605602F
:1062D8004560856005614561856140F8245FFEF78A
:1062E8008DF9FFF7B9FFE061FFF7D2FF2573206250
:1062F800204638BD10B50A4C2368DB070ED420466B
:10630800FDF7D6FE50B10748FFF7DEFF2046FDF740
:10631800D4FE054A0549034801F08AFA014810BD30
:10632800C4E30320C8E303202CE3032067670D00C0
:106338000023024A02490348FEF720BA49660D00C5
:10634800D9650D0061650D0000231A4619461846E7
:10635800FEF714BA73B502ACCE6851F8043B44F8A2
:10636800083D054601A8FEF7B2FE224631462846FA
:1063780001F0E8F901A8FEF797FE284602B070BDC3
:1063880073B502AC0E6951F8043B44F8083D054664
:1063980001A8FEF79CFE22463146284601F015FA70
:1063A80001A8FEF781FE284602B070BD73B502ACA5
:1063B8008E6851F8043B44F8083D054601A8FEF7ED
:1063C80086FE22463146284601F0E4F901A8FEF788
:1063D8006BFE284602B070BD30B58BB00D46014645
:1063E80004A8FFF7E3FF04A801F0C9F8E8B104A97D
:1063F8006846FFF7AFFF0F490298FFF718FD0446FC
:1064080010B12C1C18BF012401A8FEF74DFE002C6A
:10641800E9D004A96846FFF7B3FF684601F08FF892
:10642800286001A8FEF740FEDDE705A8FEF73CFE60
:106438000BB030BD8E800D0037B50C462046134991
:10644800154601F0E9FB40B900F0A4FD4FF41651E0
:1064580000F090FD00F09EFD15E00D49204601F08A
:10646800DBFB78B902A94FF4165341F8043D2846DE
:10647800FFF7B2FF00F016FE019900F00DFE00F0E4
:1064880011FE00E0002003B030BD00BF93800D0076
:106498009A800D0070B5046843681426054606FB0B
:1064A8000346A64205D004F10800FFF7F3FF1434B1
:1064B800F7E72868FEF7E6F9284670BD70B5046866
:1064C8004368054604EB0316A64204D02046FEF7AF
:1064D80067FA1034F8E72868FEF7D4F9284670BD43
:1064E80010B504460C30FFF7D5FF2046FFF7E6FF4E
:1064F800204610BD10B5044B044640F8043BFFF796
:10650800EFFF204610BD00BFD07D0D0010B504463A
:10651800FFF7F0FF2046242101F098F9204610BD2E
:1065280010B5034B03600446FFF7E4FF204610BD97
:1065380024800D0010B50446FFF7F2FF2046242101
:1065480001F084F9204610BD10B5036804461868A8
:10655800FEF764F8204610BD2DE9F04F9B461B4B13
:106568005B68C3F3080385B082460E46904653BB6A
:10657800FFF7C0FE044624300390FFF71BFD237B82
:10658800F3B90123237325686368F6B205EB830921
:106598004D4513D055F8047B4146381DFFF730FEB2
:1065A8008642F5D33B68CDF800B09B689E463846D6
:1065B8004346324651467746B847E9E700232373F6
:1065C80003A8FFF7C1FF05B0BDE8F08F00ED00E0BC
:1065D8002DE9F74F9946194B5B68C3F30803074643
:1065E8008846164633BBFFF785FE044624300190E3
:1065F800FFF7E0FC237BD3B9012323732568636885
:106608005FFA86FB05EB830A55450ED055F8046BF7
:106618004946301DFFF7F4FD8345F5D333684246FC
:10662800DB68394630469847EEE70023237301A814
:10663800FFF78AFF03B0BDE8F08F00BF00ED00E070
:106648002DE9F341154B5B68C3F3080304468846FC
:10665800FBB9FFF74FFE064624300190FFF7AAFC6E
:1066680096E8A000462605EB8707AF4207D101A8A8
:10667800FFF76AFFB442B4BF002001200AE055F8D2
:10668800040B41460430FFF7BBFD8642A8BF06460F
:10669800EBE7002002B0BDE8F08100BF00ED00E0AC
:1066A80070B503684268044603EB82029A421846B2
:1066B8000ED006680D68AE4203F10403F6D1011D41
:1066C800521A01F045FA6368013B6360012070BD0E
:1066D800002070BD1FB50446243001910390FFF7D8
:1066E80069FC01A92046FFF7DBFF20B903A8FFF7E3
:1066F8002BFF04B010BD6368002BF7D1FFF724FE11
:10670800F4E770B5056943691826044606FB035685
:10671800AE4215D005F110012046FFF7C1FF6368AE
:106728000BB9FFF711FEE06929690368DB68984730
:10673800696919B1206A0368DB6898471835E7E783
:1067480025696369182606FB0356B54204D0284616
:10675800FEF726F91835F8E70023636170BD73B5B5
:10676800044602ADFFF7F0FD04F1240045F8040DDE
:10677800FFF720FC2046FFF7C4FF2846FFF7E4FE9A
:1067880025696369182606FB0356B54204D02846D6
:10679800FEF706F91835F8E72069FEF773F8206860
:1067A800FEF770F8204602B070BD03680A68026000
:1067B8000B6043684A6842604B6083688A688260FD
:1067C8008B60704710B50023044603604360836004
:1067D800FFF7EBFF204610BD8842F8B50446164681
:1067E80025D9904224D2551A143D2C44A1F11407FE
:1067F800A2F10C050026A5F108039F4237D084B109
:1068080055F8083C236035F8043CA38035F9023C70
:10681800E380A660E6602661294604F10800FFF7D8
:10682800C4FF2846FFF736FE143C143DE3E71ED0AC
:1068380001F108050027A5F108039E4217D084B18D
:1068480055F8083C236035F8043CA38035F9023C30
:10685800E380A760E7602761294604F10800FFF795
:10686800A4FF2846FFF716FE14341435E3E7F8BDF5
:10687800F8B5456883689D4204460E4617460EDB08
:106888000135002D05DDA9000068FEF703F820B9E1
:10689800F8BD0068FDF7F6FF00202060A5602568B8
:1068A800626805EB860105EB8202521A081D01F0A9
:1068B8004FF945F826706368013363600120F8BD1D
:1068C80037B5044624300D460190FFF773FB236863
:1068D800616803EB810083421A4609D01268AA4214
:1068E80003F10403F7D101A8FFF72EFE00250EE0FF
:1068F8002A462046FFF7BCFF05460028F3D0636808
:10690800012B01D1FFF714FD01A8FFF71DFE284652
:1069180003B030BD8842F8B506460C46154614D972
:10692800904213D2A2F110056C1AA1F11007044489
:10693800AF4218D01CB129462046FEF721F8284658
:10694800FEF72EF8103D103CF2E70CD0AC420AD00E
:106958001EB121463046FEF713F82046FEF720F810
:1069680010341036F2E7F8BD70B50E1E05460BDD83
:106978003001FDF77FFF044670B195E8060001EB92
:106988000212FFF7C7FF00E000242868FDF77AFF2E
:106998002C60AE60012070BD70BD2DE9F04F002362
:1069A80095B092464622036043608360C3600361EA
:1069B800436102760291DAF8041008939942054679
:1069C80009930A9340F39D8008A8FFF7CDFF00289C
:1069D80040F097808EE021460BA8FDF7D1FF0BA968
:1069E8000FA8099EFDF7CCFF09990A9B9942C0F2AE
:1069F800CE80013108A8FFF7B7FF002840F0C78014
:106A08000FA8FDF7CDFF0BA8FDF7CAFF1434A74266
:106A1800E1D100260B960C960D96B146099B9E4235
:106A280080F2A8803301089AD3580693002B00F00F
:106A38009F8014237343CDF81C9001930BAC07A9D6
:106A480006A8FFF7B1F90746002800F0918014ABBB
:106A5800014603F8399D079A2046FFF791FB9DF8F8
:106A680017800090B8F1000F53D1BDF81C30ADF875
:106A780040304FF6FF730F97ADF84230CDF84480A1
:106A8800CDF84880CDF84C806768A3689F424FDAFC
:106A9800009BD4F800B06168142253430BEB030742
:106AA80002FB01B207F1140039460393FFF794FE85
:106AB800A7B1039B0F9A4BF80320BDF84030BB8069
:106AC800BDF94230FB80C7F80890C7F80C90C7F8AA
:106AD800109011A907F10800FFF767FE63680133FA
:106AE800636011A8FFF7D6FCB8F1000F11D00BA80E
:106AF800FFF7D0FC08A8FFF7E1FC284615B0BDE871
:106B0800F08FDAF80040DAF80430142707FB03475F
:106B18007DE72368009A142404FB0234069B1B7843
:106B280023BBDAF80030019A13441B7CE3801DE094
:106B38000137002F0FDD142303FB07F00393FDF744
:106B480099FE834678B194E80600039B03FB021282
:106B5800FFF742FE00E0C3462068FDF793FEC4F845
:106B680000B0A76094E74FF00108BAE7083466E779
:106B7800013653E708A92846FFF717FE0BA905F1C8
:106B88000C00FFF712FE9DF808302B76AFE7089B44
:106B9800099A03EB061603EB0212314606F11000C0
:106BA800FFF7B8FE1EB10FA93046FDF7E9FE099BB5
:106BB8000133099324E700007FB50446094B44F8E4
:106BC800043B05460E4601A81146FDF782FB01AAC3
:106BD80031462046FFF7E1FE01A8FDF739FB2846BC
:106BE80004B070BDD07D0D00F0B50F468BB02B49B9
:106BF800109C384616461D4601F00EF828BB002C9E
:106C080049D0294601A8FFF7DDFD2549242000F0D9
:106C18001FFE0546B8B101A904A8FFF7D3FD04A9D2
:106C280007A8FDF756FB07AA31462846FFF7C4FF19
:106C380007A8FDF70DFB1B4B2B602C6204A8FDF782
:106C480007FB194B2B6001A81FE01849384600F0D4
:106C5800E3FFF0B9FCB1294604A8FFF7B3FD1049DA
:106C6800242000F0F5FD054670B104A907A8FDF73A
:106C780030FB07AA31462846FFF79EFF07A8FDF715
:106C8800E7FA084B2B602C6204A8FDF7E1FA2846C6
:106C980002E0002000E020460BB0F0BDEC800D00C3
:106CA800B4820D0030810D0024800D00F0800D00AD
:106CB800014B024A1A607047F4E303202D7E0D0051
:106CC800024B1A68024B1A60704700BFC0E20320EB
:106CD800F8E3032010B58368044613B10322014684
:106CE8009847204610BD10B50446FFF7F3FF20462D
:106CF80010BD00000348044A04490023836000F0E3
:106D080097BD00BFFCE303202CE30320EF6C0D00CC
:106D180008B50C4B33B100F03DF903681B6998477F
:106D2800002809DC084B63B100F0BCF903681B6953
:106D38009847002803DC08BDAFF30080F2E7AFF303
:106D4800008008BD000000000000000008B5FFF743
:106D5800DFFFFDF7D1FB014B186008BD48E70320B2
:106D680007B5002300931A466FF07701FDF720FD61
:106D780003B05DF804FB000007B543880A2B08D070
:106D8800502B09D1094B1B683BB103B05DF804EBEC
:106D98001847FFF7E5FF06E0002300931A466FF057
:106DA8007701FDF705FD03B05DF804FB0CE4032053
:106DB80010B5FDF791FB044600F0EEFE074B13B14A
:106DC8002046AFF3008000210448FDF74BFD002169
:106DD8000348BDE81040FDF7E1BC00BF000000001B
:106DE800816D0D00704710B51821044600F02EFD86
:106DF800204610BDF0B5037D062B8DB00E4600F180
:106E080004074FF0000402D000F1080518E00CADAB
:106E1800394605F8304D2F232A460A20FDF706FC8F
:106E2800284600F003FF33680246DB6829463046EF
:106E380098470FE024B12E213046FEF729FF04447D
:106E480015F8011D0A223046FEF75EFFBD420444D4
:106E5800F0D120460DB0F0BD10B5054B0446112207
:106E680040F8043B002100F08EFE204610BD00BF14
:106E78008C810D000346074A10B543F8042B01F135
:106E8800100251F8044B43F8044B9142F9D10A78A7
:106E98001A7010BD8C810D0010B59DF8084044EAA9
:106EA800032343EA024242EA016104234160037575
:106EB80010BD37B50D788B784A78C9780091294686
:106EC800FFF7EAFF03B030BD41747047704708B55B
:106ED8000021007CFDF722FC30EA200028BF4FF09B
:106EE800FF3008BD08B50121007CFDF717FC30EA2A
:106EF800200028BF4FF0FF3008BD08B5007CFDF723
:106F080005FC20EAE07008BD08B5007CFDF7F6FB3B
:106F180020EAE07008BD007CFDF710BC10B5142114
:106F2800044600F093FC204610BD38B50446007CAA
:106F38000D46FDF7EBFB002801DC607C28B12946F3
:106F4800207CFDF7F3FB20EAE07038BD10B504465D
:106F5800002363604FF47A73A360054B2360012319
:106F68000846217463741146FDF7B0FB204610BD36
:106F7800A0810D000022007CFDF7B0BB007CFDF76E
:106F8800B5BB10B514220446002100F0FCFD2046D4
:106F980010BD000030B50E4D87B001A8FFF7F1FF16
:106FA800296811F0010410D12846FDF781F860B175
:106FB80001AA21460748FFF7C9FF2846FDF77DF8D3
:106FC800054A0649034800F033FC024807B030BDC3
:106FD80010E4032014E403202CE30320D56E0D00F5
:106FE80070474174704708B5007CFDF75FFB20EAE5
:106FF800E07008BD08B5007CFDF738FB20EAE070BA
:1070080008BD08B5007CFDF741FB30EA200028BF29
:107018004FF0FF3008BD08B5007CFDF72FFB30EAC4
:10702800200028BF4FF0FF3008BD007CFDF736BBBD
:1070380010B51421044600F009FC204610BD70B5B7
:10704800457C04460E4625B9007CFDF72FFB002839
:1070580005DD3146207CBDE87040FDF7FFBA2846C3
:1070680070BD000010B50446084611460022626053
:107078004FF47A72A260054A226001222074627479
:107088001A46FDF7DBFA204610BD00BFD0810D007F
:107098000023007CFDF712BB0022FFF7F9BF007C3C
:1070A800FDF7D4BA38B50C4D296811F0010411D197
:1070B8002846FCF7FDFF68B1084A094B09482146F4
:1070C800FFF7D0FF2846FCF7F8FF074A07490548AD
:1070D80000F0AEFB034838BDC0E40320C4E403203D
:1070E8003CE4032028E403202CE30320E96F0D008F
:1070F800002211464068FDF79DBB002211464068FA
:10710800FDF7A8BB00224068FDF79CBB002281F078
:1071180001014068FDF786BB00231A4619464068FE
:10712800FDF778BB00231A4619464068FDF76ABB8D
:10713800002211464068FDF75DBB002211464068F9
:10714800FDF748BB002202214068FDF74BBB002336
:107158001A464068FDF736BB38B5054688B104685D
:107168004CB1A3681BB10322214620469847102141
:10717800204600F06BFB28461421BDE8384000F09B
:1071880065BB38BD10B103685B681847704710B518
:1071980003680446BBB15868FDF710FA78B923684C
:1071A8005A7C12B95868FDF711FA23685868FDF738
:1071B80015FA20680023236028B1FFF7CDFF206867
:1071C80008B1FFF7C9FF204610BD000038B50C4BC9
:1071D80003600446D0F8CC0108B1FCF75CFFD4F892
:1071E800C45135B12846FFF7D2FF0421284600F0E4
:1071F8002DFBA06808B1FFF7C5FF204638BD00BFCA
:1072080000820D0038B50D4C0D4B2360002502237C
:1072180004F5E4706360A560C4F8C451C4F8C851AB
:10722800FDF7ECF9074BC4F8CC5123602046064A19
:107238000649BDE8384000F0FBBA00BF48E5032026
:1072480068820D0000820D002CE30320D5710D002B
:10725800002211464068FDF7CDBA00221146406869
:10726800FDF7E8BA002211464068FDF7F3BA00229C
:107278004068FDF7E7BA002281F001014068FDF798
:10728800D1BA00231A4619464068FDF7C3BA00234D
:107298001A4619464068FDF7B5BA002211464068FB
:1072A800FDF798BA002202214068FDF79BBA002337
:1072B8001A464068FDF786BA024B04225A60024A11
:1072C8001A60704718E7032034820D0000231A461D
:1072D8004068FDF777BA002202214068FDF782BABC
:1072E800002211464068FDF775BA00221146406831
:1072F800FDF780BA00231A4619464068FDF782BA9E
:1073080000231A4619464068FDF784BA002281F026
:1073180001014068FDF786BA00224068FDF792BA7D
:10732800002211464068FDF795BA002211464068D0
:10733800FDF780BA2DE9F043002495B016460D46B6
:107348000746FFF789FD214620220CA8009400F08B
:107358001AFC40230C9321466B460CAA3046FDF7D5
:10736800A3F80446002844D1024601216868FDF7C5
:1073780041FA0221804622466868FDF73BFA009EE2
:1073880081462146002E34D0002932D17368022B61
:1073980002D00A2B09D02AE0B8F1000F27D0716972
:1073A80038460431FFF785FD20E0B9F1000F1ED003
:1073B8007469112201A800F0E6FB06238DF8143049
:1073C80001AD04F108031834186859682A4603C245
:1073D8000833A3421546F7D101A906A807ADFFF760
:1073E80049FD0FCD3C1D0FC42B6823700121F669A0
:1073F800C8E70098FDF750F8384615B0BDE8F083A7
:10740800024B034A1A6000225A60704720E70320A3
:1074180068820D0000F11002012312F8101C0129E6
:10742800104604D152F8041C03EB410304E002297E
:1074380004BF52F8041C5B18013B02F11002ECD1A6
:1074480070470EB42DE9F04187B000AF07F134045E
:10745800054654F8046B7C6023463246102107F138
:107468000800FDF71FFA0F2816D900F1080323F0CA
:107478000703E846ADEB030D3246411C2346684638
:107488007C60FDF70FFA021E04DD2B6869469B68D5
:1074980028469847C54607E030B12B6802469B68E6
:1074A80007F10801284698471C37BD46BDE8F0415A
:1074B80003B0704710B5036804469B689847A368F3
:1074C800013BA3602BB923682046DB68BDE8104068
:1074D800184710BD13B502AB026803F8011D946884
:1074E80019460122A04702B010BD8368FBB11A7883
:1074F800032A1AD8DFE802F00417021D0520704796
:1075080002685B685268D05C2D2814D0A0F1300363
:10751800092B10D9742810D066280ED0A0F16E035C
:107528005842584170470620704700207047184657
:10753800704704207047032070470220704710B539
:107548000446FFF7D2FF02280DD016D3042814D81A
:107558002268A36850685B680A2200211844BDE8C5
:10756800104000F019BC2268A36852685B68D05CC0
:10757800A0F174035842584110BD002010BD10B549
:10758800436904465BB18068E060013B1030A0604D
:10759800206163612BB1FFF73DFFA06001E0184651
:1075A80010BD012010BD10B57D210446FFF792FFE4
:1075B80001232371204610BD08B50379012B02D0A1
:1075C800022B02D008BD2C2100E03A21FFF782FFF0
:1075D80008BD10B50446FFF7EFFF20467B21FFF7F3
:1075E80079FF00232371204610BD000038B50446FA
:1075F8000D46FFF7E1FF23680449DB6820462A4669
:10760800984701232371204638BD00BFE67F0D004F
:1076180038B504460D46FFF7CFFF23680449DB68F9
:1076280020462A46984701232371204638BD00BFCB
:10763800A3820D00F8B50D461746222104462F44B3
:10764800FFF748FF2A462946BA4238D0164616F8A8
:10765800015B222D03D05C2D01D01F2D2DD823686E
:10766800521A9B68204698475C212046FFF732FF54
:107678000C2D19D007D8092D0FD00A2D12D0082D9E
:1076880014D162210AE0222D05D05C2D03D00D2DE6
:107698000CD1722102E0294600E074212046FFF750
:1076A80019FF09E06E21F9E76621F7E723680A491F
:1076B800DB682A462046984731463246C4E791425D
:1076C80004D02368521A9D682046A84722212046E4
:1076D800FFF700FFF8BD00BFAE820D0070B504468D
:1076E8000D461646FFF768FF204632462946FFF743
:1076F800A1FF02232371204670BD70B504460D46D4
:107708001646FFF759FF204632462946FFF792FFF3
:1077180001232371204670BD38B50C6803689C426C
:1077280005460CD014B1636801336360286828B13A
:107738004368013B43600BB9FFF7BCFE2C60284649
:1077480038BD000010B500230446036043601048AC
:10775800A060E360D1B10B78032B06D0B3B91368EE
:1077680058684B68C35C6E2B08D0136858684B6820
:107778000344A3608B6849685B1AE360114620469E
:1077880051F8043B40F8043BFFF7C6FF204610BD04
:1077980062800D00002310B50446036043608360D7
:1077A800C3600361436171B10B78012B0BD101F107
:1077B80010038360CB684361114651F8043B40F8DD
:1077C800043BFFF7A9FF204610BD002310B504466F
:1077D80003604360816031B1114651F8043B40F8C1
:1077E800043BFFF799FF204610BD000070B50C4C14
:1077F8000C4E0D4D00212046FDF7A2F820460B4CFB
:107808003246294600F014F801212046FDF798F881
:10781800324629462046BDE8704000F009B800BF4E
:1078280028E703202CE3032039490D0038E703201B
:107838000B460146184600F063B90000024B186871
:10784800BFF35F8F704700BF4CE70320FCF721BCF4
:1078580010B5002814BF044601242046FDF70AF895
:1078680020B9FFF7EBFF08B18047F6E710BD00002D
:10787800184B1A68D1075CBF01221A60164B1A68A8
:10788800D2075CBF01221A60144B1A68D0075CBF8C
:1078980001221A60124B1A68D1075CBF01221A60D4
:1078A800104B1A68D2075CBF01221A600E4B1A6887
:1078B800D0075CBF01221A600C4B1A68D1075CBF65
:1078C80001221A600A4B1A68D2075CBF01221A60AB
:1078D800704700BF6CE7032068E7032064E70320D4
:1078E80060E703205CE7032058E7032054E7032000
:1078F80050E70320244B1A68D0075CBF01221A60A6
:10790800224B1A68D1075CBF01221A60204B1A6803
:10791800D2075CBF01221A601E4B1A68D0075CBFF1
:1079280001221A601C4B1A68D1075CBF01221A6039
:107938001A4B1A68D2075CBF01221A60184B1A68E2
:10794800D0075CBF01221A60164B1A68D1075CBFCA
:1079580001221A60144B1A68D2075CBF01221A6010
:10796800124B1A68D0075CBF01221A60104B1A68C4
:10797800D1075CBF01221A600E4B1A68D2075CBFA0
:1079880001221A60704700BF9CE7032098E7032094
:1079980094E7032090E703208CE7032088E703207F
:1079A80084E7032080E703207CE7032078E70320AF
:1079B80074E7032070E70320244B1A68D0075CBFE4
:1079C80001221A60224B1A68D1075CBF01221A6093
:1079D800204B1A68D2075CBF01221A601E4B1A6836
:1079E800D0075CBF01221A601C4B1A68D1075CBF24
:1079F80001221A601A4B1A68D2075CBF01221A606A
:107A0800184B1A68D0075CBF01221A60164B1A6817
:107A1800D1075CBF01221A60144B1A68D2075CBFF9
:107A280001221A60124B1A68D0075CBF01221A6043
:107A3800104B1A68D1075CBF01221A600E4B1A68F6
:107A4800D2075CBF01221A60704700BFCCE7032051
:107A5800C8E70320C4E70320C0E70320BCE70320EE
:107A6800B8E70320B4E70320B0E70320ACE703201E
:107A7800A8E70320A4E70320A0E70320184B1A680F
:107A8800D1075CBF01221A60164B1A68D2075CBF87
:107A980001221A60144B1A68D0075CBF01221A60D1
:107AA800124B1A68D1075CBF01221A60104B1A6882
:107AB800D2075CBF01221A600E4B1A68D0075CBF60
:107AC80001221A600C4B1A68D1075CBF01221A60A8
:107AD8000A4B1A68D2075CBF01221A60704700BFC0
:107AE800ECE70320E8E70320E4E70320E0E70320CE
:107AF800DCE70320D8E70320D4E70320D0E70320FE
:107B080010B5054C13462CB10A4601460220AFF3C6
:107B1800008010BD204610BD0000000010B50139DE
:107B28000244904207D010F8013B11F8014FA342DC
:107B3800F7D0181B10BD002010BD10B5431E0A4415
:107B4800914204D011F8014B03F8014FF8E710BD3A
:107B5800884210B501EB020301D8421E0BE098429F
:107B6800FBD28118D21AD34204D013F8014D01F880
:107B7800014DF8E710BD994204D011F8014B02F805
:107B8800014FF8E710BD02440346934202D003F8C0
:107B9800011BFAE77047000038B5124B1C68A36B4D
:107BA8000546D3B91820FCF765FE43F20E33A063EF
:107BB80003804AF6CD33438041F2342383804EF26A
:107BC8006D63C3804DF6EC630381052343810B236A
:107BD800838101220023C0E90423A36B00221D61D5
:107BE8005A6138BD28E30320C9B2034610F8012BB7
:107BF8001AB19142F9D11846704700290CBF1846AE
:107C08000020704710B50446FFF7EEFF18B920466C
:107C180000F00CF8204410BD10F8012B11F8013BBE
:107C2800012A28BF9A42F7D0D01A7047034613F8A2
:107C3800012B002AFBD1181A0138704730B582B1E0
:107C4800451E013915F8013F11F8014FA34206D12D
:107C5800EC431444E04201D0002BF3D11C46181B1E
:107C680030BD104630BD38B503460D4641B100243D
:107C780029461846FFF7B8FF30B1431C0446F7E71A
:107C8800BDE83840FFF7B0BF204638BD2DE9F047C2
:107C980080464048D0F800900F463D4615F8014B05
:107CA80009EB0400407800F0080000F0FF0608B176
:107CB8002F46F2E72D2C03D1BD1C7C78012603E06A
:107CC8002B2C04BF7C78BD1C13B1102B0AD15BE0B0
:107CD800302C57D1287800F0DF0058284DD16C7827
:107CE80010230235002E14BF4FF0004C6FF0004CEB
:107CF8000027BCFBF3FA384603FB1ACC09EB040E49
:107D08009EF801E01EF0040F01D0303C0BE01EF09D
:107D1800030E1BD0BEF1010F0CBF4FF0370E4FF012
:107D2800570ECEEB0404A34210DDB7F1FF3F0AD093
:107D3800504506D801D1644503DC03FB0040012708
:107D480001E04FF0FF3715F8014BD7E77B1C0CD14A
:107D5800002E4FF0220314BF4FF000406FF0004098
:107D6800C8F800302AB9BDE8F08706B1404272B1C0
:107D780007B1691E1160BDE8F0873024002BB1D12E
:107D88000823AFE70A23ADE7302CA3D0AAE7BDE864
:107D9800F08700BFC4E2032013460A4601460248A2
:107DA8000068FFF773BF00BF28E303201D400D00E4
:107DB80059400D0085400D0089400D00000000006D
:107DC80000000000000000000000000000000000AB
:107DD800A5400D00C9400D00000000000000000093
:107DE800E1400D0015410D00F55F0D00CB400D0081
:107DF800766F6964207365747570282900633A2F5B
:107E080055736572732F4E6572646F6D2F44657379
:107E18006B746F702F626C652F7372632F626C6561
:107E28002E696E6F00617070004170706C696361DB
:107E380074696F6E20737461727465642E00546F78
:107E4800646400747800727800364534303030301D
:107E5800332D423541332D463339332D45304139A1
:107E68002D45353045323444434341394500364584
:107E78003430303030322D423541332D46333933AA
:107E88002D453041392D4535304532344443434141
:107E980039450036453430303030312D42354133A4
:107EA8002D463339332D453041392D45353045324E
:107EB80034444343413945000000000000000000FD
:107EC8001B490D0011490D0007490D00FD480D0023
:107ED800F1480D00E5480D00D9480D00D1480D00C6
:107EE800C7480D00BD480D003D730D00000000009F
:107EF8000000000039490D003B490D00000000005A
:107F080000000000BF4A0D00C54A0D008D590D0044
:107F1800EF4A0D00C14A0D000000000000000000FB
:107F2800B94A0D00D34A0D00995A0D00F34A0D00C5
:107F3800BB4A0D000000000000000000B34A0D001D
:107F4800E14A0D0069510D00F74A0D00B54A0D00D0
:107F58007BE327747BF815ACDD49A913000072F5A3
:107F6800776972696E672E626C650053746172740A
:107F780020646973636F766572696E6720736572D2
:107F880076696365732E0053746172742064697333
:107F9800636F766572696E67206368617261637486
:107FA80065726973746963732E0068616C5F626CD3
:107FB800655F676174745F636C69656E745F64693B
:107FC80073636F7665725F616C6C5F7365727669F7
:107FD8006365732829206661696C65643B202564A4
:107FE800004E6577207065726970686572616C20F3
:107FF800636F6E6E65637465642E00000000000098
:1080080000000000AF5D0D00D55D0D00895D0D001D
:108018004B740D00000000000000000029650D00F1
:108028003D650D00615E0D00915D0D0000000000D2
:1080380000000000AB5D0D00F15D0D0041640D0016
:10804800FF5D0D0066006C6E00666E00636F646510
:108058000064657461696C000D0A00253031307563
:1080680020005D20002C200028293A2000205B00F9
:10807800636F6465203D200025690064657461694B
:108088006C73203D200062617564005365726961FC
:108098006C0053657269616C3100747970650070A9
:1080A8006172616D00636D6400696400686E6400EC
:1080B8007374726D0066696C74006C766C00616430
:1080C8006448616E646C65720072656D6F766548B0
:1080D800616E646C657200656E756D48616E646C86
:1080E800657273004A534F4E53747265616D4C6FDD
:1080F8006748616E646C6572006E6F6E65007472BD
:1081080061636500696E666F007761726E00657203
:10811800726F720070616E696300616C6C000000C0
:108128000000000000000000FD640D0015650D0052
:10813800F55F0D00CB400D000000000000000000BE
:10814800AD5D0D00E35D0D00F16B0D00935D0D005D
:108158005A00252B3033643A253032750025592DC5
:10816800256D2D25645425483A254D3A2553257A01
:108178000061736374696D65000000000000000011
:1081880000000000FD6D0D00ED6D0D00EF6D0D00A0
:108198000000000000000000D56E0D00256F0D00E6
:1081A800336F0D004D5C0D00116F0D00D76E0D0083
:1081B800ED6E0D001F6F0D00036F0D00D16E0D00E9
:1081C8000000000000000000E96F0D0039700D008C
:1081D80047700D004D5C0D00FD6F0D001F700D0008
:1081E8000B700D0033700D00EB6F0D00EF6F0D007D
:1081F800000000000000000057710D004D710D00D7
:1082080043710D0039710D002D710D0021710D00A4
:1082180015710D000D710D0003710D00F9700D0041
:108228003D730D000000000000000000B7720D0053
:10823800AD720D00A3720D0059720D0097720D00FA
:108248008B720D007F720D0077720D006D720D003C
:1082580063720D003D730D00000000000000000077
:10826800D5720D00DF720D00E9720D00F3720D007A
:10827800FD720D0009730D0015730D0021730D00BB
:1082880029730D0033730D003D730D00302E30003F
:1082980066616C73650074727565002575002567E5
:1082A800006E756C6C007525303478000000202055
:1082B800202020202020202828282828202020208E
:1082C800202020202020202020202020202088104E
:1082D80010101010101010101010101010100404AE
:1082E80004040404040404041010101010101041B5
:1082F8004141414141010101010101010101010126
:1083080001010101010101010110101010101042BA
:1083180042424242420202020202020202020202F5
:1083280002020202020202020210101010200000D3
:108338000000000000000000000000000000000035
:108348000000000000000000000000000000000025
:108358000000000000000000000000000000000015
:108368000000000000000000000000000000000005
:1083780000000000000000000000000000000000F5
:1083880000000000000000000000000000000000E5
:1083980000000000000000000000000000000000D5
:1083A80000000000000000000000000000000000C5
:1083B80000000000000000000000000000000000B5
:1083C80000000000000000000000000000000000A5
:1083D8000000000000000000000000000000000095
:1083E8000000000000000000000000000000000085
:1083F8000000000000000000000000000000000075
:108408000000000000000000000000000000000064
:108418004300000041430D0025490D0071490D003E
:108428003D5C0D00B96C0D00C96C0D00FD6C0D00B4
:108438000D720D00C1720D0009740D00F5770D0065
:1084480079780D00FD780D00C1790D00857A0D0051
:0884580000000000000000001C
:10846000767E0D00517E0D009B7E0D0048810D0033
:108470003C800D0079810D00B5820D0000000000E8
:10848000B8830D00D8830D00F8830D0000000000B4
:1084900000000000000000000000000018840D0033
:1084A00000000000000000000000000000000000CC
:1084B00000000000000000000000000000000000BC
:1084C00000000000000000000000000000000000AC
:1084D000000000000000000000000000C8E20320CF
:1084E000FFFFFFFF00000102030405060708090A59
:1084F0000B0C0D0E0F101112131415161718191A54
:088500001B1C1D1E1F2028009A
:04850800785634125B
:04000003D0004018D1
:00000001FF
